{
    "address": "0xECED090dE552D70b7827336A9c585E14961e6aF8",
    "abi": [
        {
            "inputs": [],
            "stateMutability": "nonpayable",
            "type": "constructor"
        },
        {
            "inputs": [],
            "name": "DISCOUNT_PER_MONTH",
            "outputs": [
                {
                    "internalType": "uint256",
                    "name": "",
                    "type": "uint256"
                }
            ],
            "stateMutability": "view",
            "type": "function"
        },
        {
            "inputs": [],
            "name": "MAX_DISCOUNT",
            "outputs": [
                {
                    "internalType": "uint256",
                    "name": "",
                    "type": "uint256"
                }
            ],
            "stateMutability": "view",
            "type": "function"
        },
        {
            "inputs": [],
            "name": "MONTH_IN_SECONDS",
            "outputs": [
                {
                    "internalType": "uint256",
                    "name": "",
                    "type": "uint256"
                }
            ],
            "stateMutability": "view",
            "type": "function"
        },
        {
            "inputs": [
                {
                    "internalType": "uint256",
                    "name": "tokenId",
                    "type": "uint256"
                }
            ],
            "name": "calculateDiscount",
            "outputs": [
                {
                    "internalType": "uint256",
                    "name": "",
                    "type": "uint256"
                }
            ],
            "stateMutability": "view",
            "type": "function"
        },
        {
            "inputs": [
                {
                    "internalType": "uint256",
                    "name": "tokenId",
                    "type": "uint256"
                }
            ],
            "name": "getOwnershipStart",
            "outputs": [
                {
                    "internalType": "uint256",
                    "name": "",
                    "type": "uint256"
                }
            ],
            "stateMutability": "view",
            "type": "function"
        },
        {
            "inputs": [
                {
                    "internalType": "address",
                    "name": "to",
                    "type": "address"
                }
            ],
            "name": "safeMint",
            "outputs": [],
            "stateMutability": "nonpayable",
            "type": "function"
        }
    ],
    "bytecode": "0x60806040523480156200001157600080fd5b506040518060400160405280601281526020017f44796e616d6963446973636f756e744e465400000000000000000000000000008152506040518060400160405280600581526020017f44444e465400000000000000000000000000000000000000000000000000000081525081600090816200008f919062000324565b508060019081620000a1919062000324565b5050506200040b565b600081519050919050565b7f4e487b7100000000000000000000000000000000000000000000000000000000600052604160045260246000fd5b7f4e487b7100000000000000000000000000000000000000000000000000000000600052602260045260246000fd5b600060028204905060018216806200012c57607f821691505b602082108103620001425762000141620000e4565b5b50919050565b60008190508160005260206000209050919050565b60006020601f8301049050919050565b600082821b905092915050565b600060088302620001ac7fffffffffffffffffffffffffffffffffffffffffffffffffffffffffffffffff826200016d565b620001b886836200016d565b95508019841693508086168417925050509392505050565b6000819050919050565b6000819050919050565b600062000205620001ff620001f984620001d0565b620001da565b620001d0565b9050919050565b6000819050919050565b6200022183620001e4565b6200023962000230826200020c565b8484546200017a565b825550505050565b600090565b6200025062000241565b6200025d81848462000216565b505050565b5b8181101562000285576200027960008262000246565b60018101905062000263565b5050565b601f821115620002d4576200029e8162000148565b620002a9846200015d565b81016020851015620002b9578190505b620002d1620002c8856200015d565b83018262000262565b50505b505050565b600082821c905092915050565b6000620002f960001984600802620002d9565b1980831691505092915050565b6000620003148383620002e6565b9150826002028217905092915050565b6200032f82620000aa565b67ffffffffffffffff8111156200034b576200034a620000b5565b5b62000357825462000113565b6200036482828562000289565b600060209050601f8311600181146200039c576000841562000387578287015190505b62000393858262000306565b86555062000403565b601f198416620003ac8662000148565b60005b82811015620003d657848901518255600182019150602085019450602081019050620003af565b86831015620003f65784890151620003f2601f891682620002e6565b8355505b6001600288020188555050505b505050505050565b6123b1806200041b6000396000f3fe608060405234801561001057600080fd5b50600436106101215760003560e01c80636359fe71116100ad578063b88d4fde11610071578063b88d4fde1461031a578063c87b56dd14610336578063e349556914610366578063e985e9c514610384578063fad5cee7146103b457610121565b80636359fe711461026257806370a08231146102925780637171225c146102c257806395d89b41146102e0578063a22cb465146102fe57610121565b806323b872dd116100f457806323b872dd146101c057806340d097c3146101dc57806342842e0e146101f8578063464bfe5f146102145780636352211e1461023257610121565b806301ffc9a71461012657806306fdde0314610156578063081812fc14610174578063095ea7b3146101a4575b600080fd5b610140600480360381019061013b9190611ab9565b6103e4565b60405161014d9190611b01565b60405180910390f35b61015e6104c6565b60405161016b9190611bac565b60405180910390f35b61018e60048036038101906101899190611c04565b610558565b60405161019b9190611c72565b60405180910390f35b6101be60048036038101906101b99190611cb9565b610574565b005b6101da60048036038101906101d59190611cf9565b61058a565b005b6101f660048036038101906101f19190611d4c565b61068c565b005b610212600480360381019061020d9190611cf9565b610744565b005b61021c610764565b6040516102299190611d88565b60405180910390f35b61024c60048036038101906102479190611c04565b610769565b6040516102599190611c72565b60405180910390f35b61027c60048036038101906102779190611c04565b61077b565b6040516102899190611d88565b60405180910390f35b6102ac60048036038101906102a79190611d4c565b6107e3565b6040516102b99190611d88565b60405180910390f35b6102ca61089d565b6040516102d79190611d88565b60405180910390f35b6102e86108a4565b6040516102f59190611bac565b60405180910390f35b61031860048036038101906103139190611dcf565b610936565b005b610334600480360381019061032f9190611f44565b61094c565b005b610350600480360381019061034b9190611c04565b610969565b60405161035d9190611bac565b60405180910390f35b61036e6109d2565b60405161037b9190611d88565b60405180910390f35b61039e60048036038101906103999190611fc7565b6109d7565b6040516103ab9190611b01565b60405180910390f35b6103ce60048036038101906103c99190611c04565b610a6b565b6040516103db9190611d88565b60405180910390f35b60007f80ac58cd000000000000000000000000000000000000000000000000000000007bffffffffffffffffffffffffffffffffffffffffffffffffffffffff1916827bffffffffffffffffffffffffffffffffffffffffffffffffffffffff191614806104af57507f5b5e139f000000000000000000000000000000000000000000000000000000007bffffffffffffffffffffffffffffffffffffffffffffffffffffffff1916827bffffffffffffffffffffffffffffffffffffffffffffffffffffffff1916145b806104bf57506104be82610b8b565b5b9050919050565b6060600080546104d590612036565b80601f016020809104026020016040519081016040528092919081815260200182805461050190612036565b801561054e5780601f106105235761010080835404028352916020019161054e565b820191906000526020600020905b81548152906001019060200180831161053157829003601f168201915b5050505050905090565b600061056382610bf5565b5061056d82610c7d565b9050919050565b6105868282610581610cba565b610cc2565b5050565b600073ffffffffffffffffffffffffffffffffffffffff168273ffffffffffffffffffffffffffffffffffffffff16036105fc5760006040517f64a0ae920000000000000000000000000000000000000000000000000000000081526004016105f39190611c72565b60405180910390fd5b6000610610838361060b610cba565b610cd4565b90508373ffffffffffffffffffffffffffffffffffffffff168173ffffffffffffffffffffffffffffffffffffffff1614610686578382826040517f64283d7b00000000000000000000000000000000000000000000000000000000815260040161067d93929190612067565b60405180910390fd5b50505050565b60006106986006610db6565b90506106a46006610dc4565b6106ae8282610dda565b60405180604001604052804281526020018373ffffffffffffffffffffffffffffffffffffffff16815250600760008381526020019081526020016000206000820151816000015560208201518160010160006101000a81548173ffffffffffffffffffffffffffffffffffffffff021916908373ffffffffffffffffffffffffffffffffffffffff1602179055509050505050565b61075f8383836040518060200160405280600081525061094c565b505050565b600181565b600061077482610bf5565b9050919050565b600061078682610df8565b6107c5576040517f08c379a00000000000000000000000000000000000000000000000000000000081526004016107bc906120ea565b60405180910390fd5b60076000838152602001908152602001600020600001549050919050565b60008073ffffffffffffffffffffffffffffffffffffffff168273ffffffffffffffffffffffffffffffffffffffff16036108565760006040517f89c62b6400000000000000000000000000000000000000000000000000000000815260040161084d9190611c72565b60405180910390fd5b600360008373ffffffffffffffffffffffffffffffffffffffff1673ffffffffffffffffffffffffffffffffffffffff168152602001908152602001600020549050919050565b62278d0081565b6060600180546108b390612036565b80601f01602080910402602001604051908101604052809291908181526020018280546108df90612036565b801561092c5780601f106109015761010080835404028352916020019161092c565b820191906000526020600020905b81548152906001019060200180831161090f57829003601f168201915b5050505050905090565b610948610941610cba565b8383610e39565b5050565b61095784848461058a565b61096384848484610fa8565b50505050565b606061097482610bf5565b50600061097f61115f565b9050600081511161099f57604051806020016040528060008152506109ca565b806109a984611176565b6040516020016109ba929190612146565b6040516020818303038152906040525b915050919050565b601481565b6000600560008473ffffffffffffffffffffffffffffffffffffffff1673ffffffffffffffffffffffffffffffffffffffff16815260200190815260200160002060008373ffffffffffffffffffffffffffffffffffffffff1673ffffffffffffffffffffffffffffffffffffffff16815260200190815260200160002060009054906101000a900460ff16905092915050565b6000610a7682610df8565b610ab5576040517f08c379a0000000000000000000000000000000000000000000000000000000008152600401610aac906120ea565b60405180910390fd5b600060076000848152602001908152602001600020604051806040016040529081600082015481526020016001820160009054906101000a900473ffffffffffffffffffffffffffffffffffffffff1673ffffffffffffffffffffffffffffffffffffffff1673ffffffffffffffffffffffffffffffffffffffff168152505090506000816000015142610b499190612199565b9050600062278d0082610b5c91906121fc565b90506000600182610b6d919061222d565b905060148111610b7d5780610b80565b60145b945050505050919050565b60007f01ffc9a7000000000000000000000000000000000000000000000000000000007bffffffffffffffffffffffffffffffffffffffffffffffffffffffff1916827bffffffffffffffffffffffffffffffffffffffffffffffffffffffff1916149050919050565b600080610c0183611244565b9050600073ffffffffffffffffffffffffffffffffffffffff168173ffffffffffffffffffffffffffffffffffffffff1603610c7457826040517f7e273289000000000000000000000000000000000000000000000000000000008152600401610c6b9190611d88565b60405180910390fd5b80915050919050565b60006004600083815260200190815260200160002060009054906101000a900473ffffffffffffffffffffffffffffffffffffffff169050919050565b600033905090565b610ccf8383836001611281565b505050565b600080610ce2858585611446565b9050600073ffffffffffffffffffffffffffffffffffffffff168173ffffffffffffffffffffffffffffffffffffffff1614610dab5760405180604001604052804281526020018673ffffffffffffffffffffffffffffffffffffffff16815250600760008681526020019081526020016000206000820151816000015560208201518160010160006101000a81548173ffffffffffffffffffffffffffffffffffffffff021916908373ffffffffffffffffffffffffffffffffffffffff1602179055509050505b809150509392505050565b600081600001549050919050565b6001816000016000828254019250508190555050565b610df4828260405180602001604052806000815250611660565b5050565b60008073ffffffffffffffffffffffffffffffffffffffff16610e1a83611244565b73ffffffffffffffffffffffffffffffffffffffff1614159050919050565b600073ffffffffffffffffffffffffffffffffffffffff168273ffffffffffffffffffffffffffffffffffffffff1603610eaa57816040517f5b08ba18000000000000000000000000000000000000000000000000000000008152600401610ea19190611c72565b60405180910390fd5b80600560008573ffffffffffffffffffffffffffffffffffffffff1673ffffffffffffffffffffffffffffffffffffffff16815260200190815260200160002060008473ffffffffffffffffffffffffffffffffffffffff1673ffffffffffffffffffffffffffffffffffffffff16815260200190815260200160002060006101000a81548160ff0219169083151502179055508173ffffffffffffffffffffffffffffffffffffffff168373ffffffffffffffffffffffffffffffffffffffff167f17307eab39ab6107e8899845ad3d59bd9653f200f220920489ca2b5937696c3183604051610f9b9190611b01565b60405180910390a3505050565b60008373ffffffffffffffffffffffffffffffffffffffff163b1115611159578273ffffffffffffffffffffffffffffffffffffffff1663150b7a02610fec610cba565b8685856040518563ffffffff1660e01b815260040161100e94939291906122c4565b6020604051808303816000875af192505050801561104a57506040513d601f19601f820116820180604052508101906110479190612325565b60015b6110ce573d806000811461107a576040519150601f19603f3d011682016040523d82523d6000602084013e61107f565b606091505b5060008151036110c657836040517f64a0ae920000000000000000000000000000000000000000000000000000000081526004016110bd9190611c72565b60405180910390fd5b805181602001fd5b63150b7a0260e01b7bffffffffffffffffffffffffffffffffffffffffffffffffffffffff1916817bffffffffffffffffffffffffffffffffffffffffffffffffffffffff19161461115757836040517f64a0ae9200000000000000000000000000000000000000000000000000000000815260040161114e9190611c72565b60405180910390fd5b505b50505050565b606060405180602001604052806000815250905090565b6060600060016111858461167c565b01905060008167ffffffffffffffff8111156111a4576111a3611e19565b5b6040519080825280601f01601f1916602001820160405280156111d65781602001600182028036833780820191505090505b509050600082602001820190505b600115611239578080600190039150507f3031323334353637383961626364656600000000000000000000000000000000600a86061a8153600a858161122d5761122c6121cd565b5b049450600085036111e4575b819350505050919050565b60006002600083815260200190815260200160002060009054906101000a900473ffffffffffffffffffffffffffffffffffffffff169050919050565b80806112ba5750600073ffffffffffffffffffffffffffffffffffffffff168273ffffffffffffffffffffffffffffffffffffffff1614155b156113ee5760006112ca84610bf5565b9050600073ffffffffffffffffffffffffffffffffffffffff168373ffffffffffffffffffffffffffffffffffffffff161415801561133557508273ffffffffffffffffffffffffffffffffffffffff168173ffffffffffffffffffffffffffffffffffffffff1614155b8015611348575061134681846109d7565b155b1561138a57826040517fa9fbf51f0000000000000000000000000000000000000000000000000000000081526004016113819190611c72565b60405180910390fd5b81156113ec57838573ffffffffffffffffffffffffffffffffffffffff168273ffffffffffffffffffffffffffffffffffffffff167f8c5be1e5ebec7d5bd14f71427d1e84f3dd0314c0f7b2291e5b200ac8c7c3b92560405160405180910390a45b505b836004600085815260200190815260200160002060006101000a81548173ffffffffffffffffffffffffffffffffffffffff021916908373ffffffffffffffffffffffffffffffffffffffff16021790555050505050565b60008061145284611244565b9050600073ffffffffffffffffffffffffffffffffffffffff168373ffffffffffffffffffffffffffffffffffffffff1614611494576114938184866117cf565b5b600073ffffffffffffffffffffffffffffffffffffffff168173ffffffffffffffffffffffffffffffffffffffff1614611525576114d6600085600080611281565b6001600360008373ffffffffffffffffffffffffffffffffffffffff1673ffffffffffffffffffffffffffffffffffffffff168152602001908152602001600020600082825403925050819055505b600073ffffffffffffffffffffffffffffffffffffffff168573ffffffffffffffffffffffffffffffffffffffff16146115a8576001600360008773ffffffffffffffffffffffffffffffffffffffff1673ffffffffffffffffffffffffffffffffffffffff168152602001908152602001600020600082825401925050819055505b846002600086815260200190815260200160002060006101000a81548173ffffffffffffffffffffffffffffffffffffffff021916908373ffffffffffffffffffffffffffffffffffffffff160217905550838573ffffffffffffffffffffffffffffffffffffffff168273ffffffffffffffffffffffffffffffffffffffff167fddf252ad1be2c89b69c2b068fc378daa952ba7f163c4a11628f55a4df523b3ef60405160405180910390a4809150509392505050565b61166a8383611893565b6116776000848484610fa8565b505050565b600080600090507a184f03e93ff9f4daa797ed6e38ed64bf6a1f01000000000000000083106116da577a184f03e93ff9f4daa797ed6e38ed64bf6a1f01000000000000000083816116d0576116cf6121cd565b5b0492506040810190505b6d04ee2d6d415b85acef81000000008310611717576d04ee2d6d415b85acef8100000000838161170d5761170c6121cd565b5b0492506020810190505b662386f26fc10000831061174657662386f26fc10000838161173c5761173b6121cd565b5b0492506010810190505b6305f5e100831061176f576305f5e1008381611765576117646121cd565b5b0492506008810190505b612710831061179457612710838161178a576117896121cd565b5b0492506004810190505b606483106117b757606483816117ad576117ac6121cd565b5b0492506002810190505b600a83106117c6576001810190505b80915050919050565b6117da83838361198c565b61188e57600073ffffffffffffffffffffffffffffffffffffffff168373ffffffffffffffffffffffffffffffffffffffff160361184f57806040517f7e2732890000000000000000000000000000000000000000000000000000000081526004016118469190611d88565b60405180910390fd5b81816040517f177e802f000000000000000000000000000000000000000000000000000000008152600401611885929190612352565b60405180910390fd5b505050565b600073ffffffffffffffffffffffffffffffffffffffff168273ffffffffffffffffffffffffffffffffffffffff16036119055760006040517f64a0ae920000000000000000000000000000000000000000000000000000000081526004016118fc9190611c72565b60405180910390fd5b600061191383836000610cd4565b9050600073ffffffffffffffffffffffffffffffffffffffff168173ffffffffffffffffffffffffffffffffffffffff16146119875760006040517f73c6ac6e00000000000000000000000000000000000000000000000000000000815260040161197e9190611c72565b60405180910390fd5b505050565b60008073ffffffffffffffffffffffffffffffffffffffff168373ffffffffffffffffffffffffffffffffffffffff1614158015611a4457508273ffffffffffffffffffffffffffffffffffffffff168473ffffffffffffffffffffffffffffffffffffffff161480611a055750611a0484846109d7565b5b80611a4357508273ffffffffffffffffffffffffffffffffffffffff16611a2b83610c7d565b73ffffffffffffffffffffffffffffffffffffffff16145b5b90509392505050565b6000604051905090565b600080fd5b600080fd5b60007fffffffff0000000000000000000000000000000000000000000000000000000082169050919050565b611a9681611a61565b8114611aa157600080fd5b50565b600081359050611ab381611a8d565b92915050565b600060208284031215611acf57611ace611a57565b5b6000611add84828501611aa4565b91505092915050565b60008115159050919050565b611afb81611ae6565b82525050565b6000602082019050611b166000830184611af2565b92915050565b600081519050919050565b600082825260208201905092915050565b60005b83811015611b56578082015181840152602081019050611b3b565b60008484015250505050565b6000601f19601f8301169050919050565b6000611b7e82611b1c565b611b888185611b27565b9350611b98818560208601611b38565b611ba181611b62565b840191505092915050565b60006020820190508181036000830152611bc68184611b73565b905092915050565b6000819050919050565b611be181611bce565b8114611bec57600080fd5b50565b600081359050611bfe81611bd8565b92915050565b600060208284031215611c1a57611c19611a57565b5b6000611c2884828501611bef565b91505092915050565b600073ffffffffffffffffffffffffffffffffffffffff82169050919050565b6000611c5c82611c31565b9050919050565b611c6c81611c51565b82525050565b6000602082019050611c876000830184611c63565b92915050565b611c9681611c51565b8114611ca157600080fd5b50565b600081359050611cb381611c8d565b92915050565b60008060408385031215611cd057611ccf611a57565b5b6000611cde85828601611ca4565b9250506020611cef85828601611bef565b9150509250929050565b600080600060608486031215611d1257611d11611a57565b5b6000611d2086828701611ca4565b9350506020611d3186828701611ca4565b9250506040611d4286828701611bef565b9150509250925092565b600060208284031215611d6257611d61611a57565b5b6000611d7084828501611ca4565b91505092915050565b611d8281611bce565b82525050565b6000602082019050611d9d6000830184611d79565b92915050565b611dac81611ae6565b8114611db757600080fd5b50565b600081359050611dc981611da3565b92915050565b60008060408385031215611de657611de5611a57565b5b6000611df485828601611ca4565b9250506020611e0585828601611dba565b9150509250929050565b600080fd5b600080fd5b7f4e487b7100000000000000000000000000000000000000000000000000000000600052604160045260246000fd5b611e5182611b62565b810181811067ffffffffffffffff82111715611e7057611e6f611e19565b5b80604052505050565b6000611e83611a4d565b9050611e8f8282611e48565b919050565b600067ffffffffffffffff821115611eaf57611eae611e19565b5b611eb882611b62565b9050602081019050919050565b82818337600083830152505050565b6000611ee7611ee284611e94565b611e79565b905082815260208101848484011115611f0357611f02611e14565b5b611f0e848285611ec5565b509392505050565b600082601f830112611f2b57611f2a611e0f565b5b8135611f3b848260208601611ed4565b91505092915050565b60008060008060808587031215611f5e57611f5d611a57565b5b6000611f6c87828801611ca4565b9450506020611f7d87828801611ca4565b9350506040611f8e87828801611bef565b925050606085013567ffffffffffffffff811115611faf57611fae611a5c565b5b611fbb87828801611f16565b91505092959194509250565b60008060408385031215611fde57611fdd611a57565b5b6000611fec85828601611ca4565b9250506020611ffd85828601611ca4565b9150509250929050565b7f4e487b7100000000000000000000000000000000000000000000000000000000600052602260045260246000fd5b6000600282049050600182168061204e57607f821691505b60208210810361206157612060612007565b5b50919050565b600060608201905061207c6000830186611c63565b6120896020830185611d79565b6120966040830184611c63565b949350505050565b7f546f6b656e20646f6573206e6f74206578697374000000000000000000000000600082015250565b60006120d4601483611b27565b91506120df8261209e565b602082019050919050565b60006020820190508181036000830152612103816120c7565b9050919050565b600081905092915050565b600061212082611b1c565b61212a818561210a565b935061213a818560208601611b38565b80840191505092915050565b60006121528285612115565b915061215e8284612115565b91508190509392505050565b7f4e487b7100000000000000000000000000000000000000000000000000000000600052601160045260246000fd5b60006121a482611bce565b91506121af83611bce565b92508282039050818111156121c7576121c661216a565b5b92915050565b7f4e487b7100000000000000000000000000000000000000000000000000000000600052601260045260246000fd5b600061220782611bce565b915061221283611bce565b925082612222576122216121cd565b5b828204905092915050565b600061223882611bce565b915061224383611bce565b925082820261225181611bce565b915082820484148315176122685761226761216a565b5b5092915050565b600081519050919050565b600082825260208201905092915050565b60006122968261226f565b6122a0818561227a565b93506122b0818560208601611b38565b6122b981611b62565b840191505092915050565b60006080820190506122d96000830187611c63565b6122e66020830186611c63565b6122f36040830185611d79565b8181036060830152612305818461228b565b905095945050505050565b60008151905061231f81611a8d565b92915050565b60006020828403121561233b5761233a611a57565b5b600061234984828501612310565b91505092915050565b60006040820190506123676000830185611c63565b6123746020830184611d79565b939250505056fea26469706673582212201e4392b089495c431bc1ca6e89de9fc60bbce8dc4cea7f6e969a2a7dca319aeb64736f6c63430008140033"
}